:100000000C945E000C9486000C9486000C94860080
:100010000C9486000C9486000C9486000C94860048
:100020000C9486000C9486000C9486000C940807AF
:100030000C9486000C9486000C9486000C94860028
:100040000C9466060C9486000C94D6060C94B006AC
:100050000C9486000C9486000C9486000C94860008
:100060000C9486000C948600000000080002010039
:100070000003040700000000000000000000000072
:10008000250028002B0000000000240027002A0083
:10009000040404040404040402020202020203032E
:1000A0000303030301020408102040800102040836
:1000B0001020010204081020C4074E0C11241FBE9A
:1000C000CFEFD8E0DEBFCDBF13E0A0E0B1E0E2E2C9
:1000D000F0E202C005900D92AE35B107D9F724E0E9
:1000E000AEE5B3E001C01D92AE37B207E1F710E014
:1000F000CDE5D0E004C02197FE010E94F50DCC357E
:10010000D107C9F70E9457080C9404100C94000002
:10011000CF92DF92EF92FF92DC01A03282E0B8072B
:10012000D4F5A53BB10514F0A4EBB0E04091420436
:1001300028E830E0241B310947FD3395220F331F97
:10014000220F331F6901330FEE08FF08409143046B
:1001500028E532E0241B310947FD3395220F331F78
:10016000220F331F032E000C440B550B2C193D0995
:100170004E095F09B7FF02C0B0E0A0E00E94510D38
:1001800024EB30E040E050E00E94270DC20ED31E69
:10019000E41EF51ED601E0914104EC3080F520917B
:1001A000420488E890E0821B910927FD9395880F0F
:1001B000991F880F991FA817B90784F0209143044D
:1001C00088E592E0821B910927FD9395880F991F7E
:1001D000880F991FA817B9070CF4CD010297880F53
:1001E000991F4FB7F8942E2F30E0F901EE0FFF1F43
:1001F000E20FF31FE45EFB4F928381834FBFFF90BA
:10020000EF90DF90CF900895209141042C3008F0BA
:100210006EC09C013327F901EC55FF4F44912057E4
:100220003F4FF9012491222399F030E0220F331F30
:10023000F901EA57FF4FA591B491F901E458FF4F36
:10024000259134912FB7F894EC91E42BEC932FBFC8
:1002500030914104432F50E0FA01EE0FFF1FE40FED
:10026000F51FE45EFB4F8F739081907C982B9083F9
:1002700010924204109243042CE0832F622F0E94BC
:10028000C10D829FB001112430E020E0AB01420F8C
:10029000531FFA01EE0FFF1FE40FF51FE45EFB4F43
:1002A000908196FD16C02F5F3F4F2C30310571F7BE
:1002B00081110FC01092800082E080938100109223
:1002C000850010928400B19A80916F0082608093C3
:1002D0006F00E09141048E2F90E0FC01EE0FFF1FB4
:1002E000E80FF91FE45EFB4F80818064808380917A
:1002F0004104089590E0FC01E859FF4F2491FC016E
:10030000EC55FF4F3491FC01E057FF4FE491EE2391
:10031000C9F0222339F0233001F1A8F4213019F17A
:10032000223029F1F0E0EE0FFF1FE458FF4FA591B6
:10033000B4918FB7F894EC91611126C030953E23AB
:100340003C938FBF08952730A9F02830C9F024309E
:1003500049F7809180008F7D03C0809180008F7766
:1003600080938000DFCF84B58F7784BDDBCF84B5E9
:100370008F7DFBCF8091B0008F778093B000D2CF7C
:100380008091B0008F7DF9CF3E2BDACF2FB7F89454
:1003900060917B0370917C0380917D0390917E033B
:1003A0002FBF0895AF92BF92CF92DF92EF92FF924C
:1003B0000F931F93CF93DF936C017B018B01040F8D
:1003C000151FEB015E01AE18BF08C017D10759F029
:1003D0006991D601ED91FC910190F081E02DC6016B
:1003E0000995892B79F7C501DF91CF911F910F9165
:1003F000FF90EF90DF90CF90BF90AF900895FC01F9
:10040000538D448D252F30E0842F90E0821B930B79
:10041000541710F0CF96089501970895FC01918D1F
:10042000828D981761F0A28DAE0FBF2FB11D5D9622
:100430008C91928D9F5F9F73928F90E008958FEFC4
:100440009FEF08950F931F930E94C6016093870347
:10045000709388038093890390938A038FE793E0D6
:100460000E940E0297FF1DC00E94C60100918703E3
:10047000109188032091890330918A03601B710BCE
:10048000820B930B009183031091840320918503C9
:10049000309186036017710782079307F8F28FEF98
:1004A0009FEF1F910F910895FC01918D828D9817F8
:1004B00031F0828DE80FF11D858D90E008958FEF6A
:1004C0009FEF0895FC01918D228D892F90E0805C33
:1004D0009F4F821B91098F73992708958FE793E0AF
:1004E0000E94620221E0892B09F420E0822F089506
:1004F00080E090E0892B29F00E946E0281110C941B
:1005000000000895FC01A48DA80FB92FB11DA35AB6
:10051000BF4F2C91848D90E001968F739927848F23
:10052000A689B7892C93A089B1898C918370806446
:100530008C93938D848D981306C00288F389E02DE7
:1005400080818F7D80830895EF92FF920F931F9398
:10055000CF93DF93EC0181E0888F9B8D8C8D981376
:100560001AC0E889F989808185FF15C09FB7F89482
:10057000EE89FF896083E889F989808183708064CE
:1005800080839FBF81E090E0DF91CF911F910F9119
:10059000FF90EF900895F62E0B8D10E00F5F1F4F28
:1005A0000F731127E02E8C8D8E110CC00FB607FC37
:1005B000FACFE889F989808185FFF5CFCE010E94C5
:1005C0008202F1CFEB8DEC0FFD2FF11DE35AFF4FAF
:1005D000F0829FB7F8940B8FEA89FB898081806253
:1005E000CFCFCF93DF93EC01888D8823B9F0AA8910
:1005F000BB89E889F9898C9185FD03C0808186FDDE
:100600000DC00FB607FCF7CF8C9185FFF2CF80812C
:1006100085FFEDCFCE010E948202E9CFDF91CF911D
:10062000089542E050E068E171E08FE793E00C94B8
:10063000D201CF93DF93FC0101900020E9F73197BD
:10064000AF01481B590BBC018FE793E00E94D20118
:10065000EC010E9411038C0F9D1FDF91CF91089533
:10066000CF93DF93FC0144815581608171818FE7D5
:1006700093E00E94D201EC010E9411038C0F9D1F98
:10068000DF91CF910895FC0180819181009711F055
:100690000C94720C60E070E0CB010895FB01448182
:1006A0005581FC01248135812417350778F080813C
:1006B0009181009759F0FB0160817181611571058D
:1006C00029F00E94F60F21E0892B09F020E0822F0B
:1006D0000895FC0124813581FB0144815581241753
:1006E0003507E1F4FC0180819181FB01608171811A
:1006F0000097D1F061157105A1F4232BC1F0FC0125
:10070000808190E008C0232B91F0FB01808190E074
:1007100091958195910921E0892B09F020E0822FA4
:1007200008950E94E60FF7CF6115710561F721E08A
:10073000F6CF0F931F93CF93DF93EC0188819981BC
:10074000009759F02A813B812617370730F081E066
:10075000DF91CF911F910F9108958B016F5F7F4FB4
:100760000E94200F009759F0998388831B830A8386
:100770002C813D81232B59F7FC011082E8CF80E0CA
:10078000E7CFEF92FF920F931F93CF93DF93611503
:10079000710541F480E0DF91CF911F910F91FF909F
:1007A000EF90089541155105B1F07B01EC010C81EA
:1007B0001D81040F151FB8010E949903882351F36E
:1007C000288139818C819D81B701820F931F0E94FE
:1007D000EF0F1D830C8381E0DECFCF93DF93EC011D
:1007E00088819981009711F00E94970E19821882D2
:1007F0001D821C821B821A82DF91CF910895EF9295
:10080000FF920F931F93CF93DF938C017B01EB013A
:1008100009900020E9F72197C61BD70BBE010E9463
:100820009903811109C0C801DF91CF911F910F91E8
:10083000FF90EF900C94ED03F801D583C483B701CA
:1008400080819181DF91CF911F910F91FF90EF9067
:100850000C94EF0F0F931F93CF93DF93CDB7DEB7B9
:10086000A1970FB6F894DEBF0FBECDBF8C01CB01B0
:10087000BA01F80111821082138212821582148249
:100880002AE0AE014F5F5F4F0E94B90CBE016F5F5F
:100890007F4FC8010E94FF03A1960FB6F894DEBFF8
:1008A0000FBECDBFDF91CF911F910F9108950F9390
:1008B0001F93CF93DF93CDB7DEB762970FB6F8944F
:1008C000DEBF0FBECDBF8C01CB01F80111821082BB
:1008D00013821282158214824AE0BE016F5F7F4F3D
:1008E0000E94990CBE016F5F7F4FC8010E94FF03F9
:1008F00062960FB6F894DEBF0FBECDBFDF91CF91E9
:100900001F910F910895CF93DF93EC01FB010190AC
:100910000020E9F73197AF01461B570B0E94C10336
:10092000811103C0CE010E94ED03CE01DF91CF9172
:100930000895CF93DF93EC01FB01448155816081E1
:1009400071810E94C103811103C0CE010E94ED0399
:10095000CE01DF91CF910895EF92FF920F931F93F5
:10096000CF93DF93EC01198218821B821A821D82B9
:100970001C826115710521F18B01FB0101900020A2
:10098000E9F731977F01E61AF70AB7010E94990348
:10099000811109C0CE01DF91CF911F910F91FF907E
:1009A000EF900C94ED03FD82EC82B801888199816F
:1009B000DF91CF911F910F91FF90EF900C94EF0F6B
:1009C000DF91CF911F910F91FF90EF900895AF921B
:1009D000BF92CF92DF92EF92FF920F931F93CF932C
:1009E000DF936C015B017A0189012417350720F43C
:1009F0008F2D7901042F182F6AE171E0C6010E9442
:100A0000AC04D5011496CD91DC91EC16FD06E0F412
:100A10000C171D0708F4E801D501ED91FC91119721
:100A2000EC0FFD1F108110826D917C916E0D7F1D6A
:100A3000C60161157105A1F00E94FF03F5018081D7
:100A40009181C80FD91F1883C601DF91CF911F91E3
:100A50000F91FF90EF90DF90CF90BF90AF900895EF
:100A60000E94ED03EBCFFC0180819181009711F092
:100A70000C94970E0895CF93DF93CDB7DEB72C97E4
:100A80000FB6F894DEBF0FBECDBF86E391E00E94A3
:100A900019038091730363E271E0882311F06BE125
:100AA00071E0CE0107960E94AC0467E471E0CE01CC
:100AB00001960E94AC04BE01695F7F4FCE01019692
:100AC0000E9499040E943003CE0101960E943305D2
:100AD000CE0107960E9433058091740360E371E0B4
:100AE000882311F06BE271E0CE0107960E94AC04FE
:100AF00060E571E0CE0101960E94AC04BE01695F21
:100B00007F4FCE0101960E9499040E943003CE01CE
:100B100001960E943305CE0107960E94330560912D
:100B2000650370916603CE0107960E94570460E644
:100B300071E0CE0101960E94AC04BE01695F7F4F57
:100B4000CE0101960E9499040E943003CE010196C5
:100B50000E943305CE0107960E943305609167031A
:100B600070916803CE0107960E9457046DE671E00C
:100B7000CE0101960E94AC04BE01695F7F4FCE0199
:100B800001960E9499040E943003CE0101960E94B2
:100B90003305CE0107960E94330560916903709179
:100BA0006A03CE0107960E94570469E771E0CE01FF
:100BB00001960E94AC04BE01695F7F4FCE01019691
:100BC0000E9499040E943003CE0101960E943305D1
:100BD000CE0107960E94330540916B0350916C0340
:100BE00060916D0370916E03CE0107960E942A04F6
:100BF00065E871E0CE0101960E94AC04BE01695F18
:100C00007F4FCE0101960E94990461E971E00E9434
:100C100083040E943003CE0101960E943305CE0169
:100C200007960E94330540916F03509170036091C5
:100C3000710370917203CE0107960E942A0464E941
:100C400071E0CE0101960E94AC04BE01695F7F4F46
:100C5000CE0101960E94990461E971E00E9483042B
:100C60000E943003CE0101960E943305CE01079603
:100C70000E94330581EA91E00E9419032C960FB679
:100C8000F894DEBF0FBECDBFDF91CF910895FF92E4
:100C90000F931F93CF93DF9305E613E0D0E0C0E0FE
:100CA000F801F1908F01CE010E94110DF81621F08C
:100CB0006F2DCE010E94190D2196C131D10581F70A
:100CC000DF91CF911F910F91FF9008951F920F9286
:100CD0000FB60F9211242F933F938F939F93AF934F
:100CE000BF9380917B0390917C03A0917D03B09191
:100CF0007E0330917A0323E0230F2D3758F50196B8
:100D0000A11DB11D20937A0380937B0390937C03F4
:100D1000A0937D03B0937E03809176039091770337
:100D2000A0917803B09179030196A11DB11D809324
:100D3000760390937703A0937803B0937903BF91E0
:100D4000AF919F918F913F912F910F900FBE0F9078
:100D50001F90189526E8230F0296A11DB11DD2CF32
:100D60001F920F920FB60F9211242F933F934F9320
:100D70005F936F937F938F939F93AF93BF93EF9303
:100D8000FF938FE793E00E948202FF91EF91BF9162
:100D9000AF919F918F917F916F915F914F913F9113
:100DA0002F910F900FBE0F901F9018951F920F92CA
:100DB0000FB60F9211242F938F939F93EF93FF936E
:100DC000E0918F03F09190038081E0919503F09181
:100DD000960382FD1BC09081809198038F5F8F7373
:100DE00020919903821741F0E0919803F0E0E158D7
:100DF000FC4F958F80939803FF91EF919F918F9176
:100E00002F910F900FBE0F901F9018958081F4CFF7
:100E10001F920F920FB60F9211242F933F934F936F
:100E20005F936F937F938F939F93AF93BF93CF9372
:100E3000DF93EF93FF9380915E03C0914004D0E075
:100E400087FF24C0109285001092840080915E0379
:100E50008F5F80935E0380915E03082E000C990BD8
:100E60008C179D0724F480915E038C30C4F180912F
:100E7000840090918500049680349C4908F47AC0DF
:100E80008091840090918500049676C080915E03E5
:100E9000082E000C990B8C179D07C4F6E0915E0399
:100EA0008E2FEE0F990BFC01EE0FFF1FE80FF91FBD
:100EB000E45EFB4F808186FFC9CFE0915E038E2FF9
:100EC000EE0F990BFC01EE0FFF1FE80FF91FE45E18
:100ED000FB4F808160E08F730E947A01B7CF209131
:100EE000840030918500E0915E038E2FEE0F990B08
:100EF000FC01EE0FFF1FE80FF91FE45EFB4F81813D
:100F00009281820F931F9093890080938800E091D3
:100F10005E038E2FEE0F990BFC01EE0FFF1FE80F03
:100F2000F91FE45EFB4F808186FF11C0E0915E03F4
:100F30008E2FEE0F990BFC01EE0FFF1FE80FF91F2C
:100F4000E45EFB4F808161E08F730E947A01FF9124
:100F5000EF91DF91CF91BF91AF919F918F917F9151
:100F60006F915F914F913F912F910F900FBE0F9016
:100F70001F90189580E49CE99093890080938800E5
:100F80008FEF80935E03E3CF109282031092810370
:100F900088EE93E0A0E0B0E0809383039093840315
:100FA000A0938503B09386038AE091E09093800339
:100FB00080937F0385EC90E090938C0380938B0368
:100FC00084EC90E090938E0380938D0380EC90E00E
:100FD0009093900380938F0381EC90E09093920321
:100FE0008093910382EC90E0909394038093930319
:100FF00086EC90E09093960380939503109298036B
:101000001092990310929A0310929B036AEB71E07D
:1010100084E794E00E94AC046DEC71E08EE694E00D
:101020000E94AC0466ED71E088E694E00E94AC0496
:101030006FED71E082E694E00E94AC0469EE71E02D
:101040008CE594E00E94AC0464EF71E086E594E0E6
:101050000E94AC046DEF71E080E594E00E94AC0466
:1010600065E072E08AE494E00E94AC046BE072E018
:1010700084E494E00E94AC04809140048C3098F4A5
:1010800091E0980F909340048093410490E0FC011C
:10109000EE0FFF1FE80FF91FE45EFB4F88EB9BE0AC
:1010A0009283818308958FEF809341040895CF93B5
:1010B000DF93CDB7DEB76C970FB6F894DEBF0FBEE7
:1010C000CDBF789484B5826084BD84B5816084BDD1
:1010D00085B5826085BD85B5816085BD80916E00D6
:1010E000816080936E001092810080918100826007
:1010F0008093810080918100816080938100809144
:1011000080008160809380008091B1008460809332
:10111000B1008091B00081608093B00080917A002E
:10112000846080937A0080917A00826080937A0054
:1011300080917A00816080937A0080917A00806843
:1011400080937A001092C100E0918F03F091900398
:1011500082E08083E0918B03F0918C031082E09118
:101160008D03F0918E0380E1808310929703E091CC
:101170009303F091940386E08083E0919103F091D2
:101180009203808180618083E0919103F0919203CA
:10119000808188608083E0919103F0919203808147
:1011A00080688083E0919103F091920380818F7D2C
:1011B0008083F5E6EF2EF3E0FF2E10E000E0C8019B
:1011C0000E94110DF70181937F010F5F1F4F0131C5
:1011D0001105A9F7809175038823B9F08091670301
:1011E0009091680301978A35910578F4809169039D
:1011F00090916A0301978A35910538F480916503CF
:101200009091660302974297A8F180E192E00E94D4
:1012100019038AE090E090936803809367039093AA
:101220006A03809369038CED95E0A0E0B0E08093C1
:101230006B0390936C03A0936D03B0936E0384EFE4
:1012400091E0A0E0B0E080936F0390937003A093CF
:101250007103B093720389E090E0909366038093EA
:101260006503109273031092740381E080937503F9
:101270000E94470680916503909166030E940401D5
:10128000809174038823C9F081E0809373031092E6
:101290006403109263030E94C60160935F0370931E
:1012A0006003809361039093620380916703909140
:1012B0006803865A9F4F0E9488008DE392E00E9447
:1012C00019030E943B05EAE54E2E512C332433943A
:1012D00070E0672E70E0772E8FE793E00E94620245
:1012E000181619060CF0EBC06AE171E0CE014396C6
:1012F0000E94AC040E94220297FD0FC08A30910523
:1013000061F089831A8241E050E0BE016F5F7F4F38
:10131000CE0143960E94C103EDCFCB88DC88C11477
:10132000D10431F00F89188D76010115110549F5A9
:101330006AE474E0CE0143960E946903882309F4AD
:1013400056C03092730310926403109263030E949C
:10135000C60160935F037093600380936103909371
:1013600062038091670390916803865A9F4F0E94A1
:1013700088000E94470684E692E00E9419039BC001
:1013800074014701FFEF8F1A9F0AF7018081082E31
:10139000000C990B0E94F50C892B91F70150110953
:1013A0000C0D1D1DF8018081082E000C990B0E9468
:1013B000F50C892B31F00E151F0518F0015011099D
:1013C000F1CF0F5F1F4FA8014E195F09588F4F8B48
:1013D000CE14DF0420F4B701C6010E94DD0FEB89B3
:1013E000FC898F89988DE80FF91F1082A1CF64E4E2
:1013F00074E0CE0143960E946903882359F010924D
:1014000073038AE590E00E9488000E94470685E702
:1014100092E0B3CF6EE674E0CE0143960E944E0395
:10142000882309F49EC02F89388D40917204509111
:101430007304BE016D5E7F4FCE0101960E94E704EA
:10144000CE0101960E9443036B01CE0101960E94DA
:101450003305FBE5CF16D1041CF06AE5C62ED12C6E
:101460001C141D041CF0CC24C394D12CD09268030E
:10147000C09267030E9447066091670370916803FA
:10148000CE0107960E94570466E872E0CE010196ED
:101490000E94AC04BE01695F7F4FCE0101960E949D
:1014A00099040E943003CE0101960E943305CE01BB
:1014B00007960E943305CE0143960E943305809122
:1014C0007303882309F441C00E94C601409163035D
:1014D000509164039A012D7F232B09F0BBC1009129
:1014E0006B0310916C0320916D0330916E0380901B
:1014F0005F0390906003A0906103B09062036B0162
:101500007C01C818D908EA08FB08C016D106E20613
:10151000F306D8F060935F037093600380936103D8
:1015200090936203CA01019664E070E00E94CD0DC1
:1015300090936403809363038130910509F499C10A
:101540000CF091C1892B09F497C16114710409F45D
:10155000C3CE0E946E02882309F4B8CE0E94000018
:10156000B5CE68E674E0CE0143960E944E03882310
:10157000A1F12F89388D40916C0450916D04BE010A
:101580006D5E7F4FCE0101960E94E704CE01019669
:101590000E9443036B01CE0101960E9433052BE5A7
:1015A000C216D1041CF04AE5C42ED12C1C141D0413
:1015B0001CF0CC24C394D12CD0926A03C09269034E
:1015C0000E9447066091690370916A03CE010796F5
:1015D0000E94570461EA72E059CF62E674E0CE01DE
:1015E00043960E944E038823E9F12F89388D40915C
:1015F000660450916704BE016D5E7F4FCE01019677
:101600000E94E704CE0101960E94430360936B039E
:1016100070936C0380936D0390936E03CE010196DB
:101620000E9433050E94470640916B0350916C0362
:1016300060916D0370916E03CE0107960E942A049B
:101640006CEB72E0CE0101960E94AC04BE01695FB2
:101650007F4FCE0101960E94990461E971E00E94DA
:1016600083041FCF6CE574E0CE0143960E944E03C5
:10167000882371F12F89388D409160045091610465
:10168000BE016D5E7F4FCE0101960E94E704CE0140
:1016900001960E94430360936F03709370038093DD
:1016A000710390937203CE0101960E9433050E944C
:1016B000470640916F0350917003609171037091E0
:1016C0007203CE0107960E942A0463ED72E0BACF3E
:1016D00064E774E0CE0143960E944E03882379F1BB
:1016E0002F89388D4091780450917904BE016D5E48
:1016F0007F4FCE0101960E94E704CE0101960E9421
:10170000430321E0613071058105910509F020E076
:1017100020937403CE0101960E9433050E94470670
:101720008091740360E371E0882311F06BE271E053
:10173000CE0107960E94AC046BEE72E0A7CE66E580
:1017400074E0CE0143960E944E03882309F46FC0D3
:101750002F89388D40915A0450915B04BE016D5E13
:101760007F4FCE0101960E94E704CE0101960E94B0
:1017700043036B01CE0101960E943305C601029717
:10178000429710F5D0926603C0926503E091410440
:101790008E2F90E0FC01EE0FFF1FE80FF91FE45EB3
:1017A000FB4F80818F7B8083C6010E9404010E94D1
:1017B00047066091650370916603CE0107960E940B
:1017C000570466E073E062CE63E170E0CE010D96EF
:1017D0000E94570462E070E0CE0107960E94570411
:1017E0006EE173E0CE0101960E94AC04BE01695F18
:1017F0007F4FCE0101960E94990463E473E00E943A
:101800008304BE01635F7F4F0E94990462E672E029
:101810000E9483040E943003CE0101960E9433058A
:10182000CE0107960E943305CE010D9642CE60E5AB
:1018300074E0CE0143960E946903882319F00E9448
:101840003B0539CE8F89988D892B09F434CE8DE4F0
:1018500093E093CD00916F03109170032091710379
:101860003091720344CE8230910579F0039709F0EC
:101870006CCE8AE590E006C0809167039091680382
:10188000865A9F4F0E94880060CE80916903909194
:101890006A037201E81AF90AC701F4CF84E494E0FC
:1018A0000E9433058AE494E00E94330580E594E0C9
:1018B0000E94330586E594E00E9433058CE594E0B0
:1018C0000E94330582E694E00E94330588E694E0A6
:1018D0000E9433058EE694E00E94330584E794E08D
:1018E0000C9433051F93FC0199278827BC01E894C9
:1018F00011911032E9F3193010F01E30C8F31B3289
:1019000051F01D3249F4689406C00E94A40C610F86
:10191000711D811D911D119110531A30B0F33EF4C9
:1019200090958095709561957F4F8F4F9F4F1F9138
:101930000895BB274A3031F4992322F4BDE29095F3
:1019400081959F4F0C94DC0C592F482F372F262F51
:10195000660F771F881F991F660F771F881F991FB3
:10196000620F731F841F951F660F771F881F991FB3
:101970000895BB27FA01A62F62177105810591050D
:10198000330B30FB66F0AA27660F771F881F991F5D
:10199000AA1FA21710F0A21B63953850A9F7A05DEB
:1019A000AA3308F0A95DA19336F7B111B193108263
:1019B000CA010C94FE0CBB27FB015527AA27880FF0
:1019C000991FAA1FA41710F0A41B83955051B9F7B3
:1019D000A05DAA3308F0A95DA193009779F7B11132
:1019E000B1931192CB010C94FE0C91110C940E0D3D
:1019F000803219F089508550C8F70895DC01FC0148
:101A0000672F71917723E1F7329704C07C916D9332
:101A100070836291AE17BF07C8F30895992788278E
:101A20000895F999FECF92BD81BDF89A992780B5A6
:101A30000895262FF999FECF1FBA92BD81BD20BD12
:101A40000FB6F894FA9AF99A0FBE01960895052EEA
:101A500097FB1EF400940E943E0D57FD07D00E9494
:101A6000900D07FC03D04EF40C943E0D509540951C
:101A7000309521953F4F4F4F5F4F0895909580953A
:101A8000709561957F4F8F4F9F4F08950E94B20DC3
:101A9000A59F900DB49F900DA49F800D911D1124C2
:101AA0000895B7FF0C94460D0E94460D821B930BC0
:101AB00008952F923F924F925F926F927F928F92F2
:101AC0009F92AF92BF92CF92DF92EF92FF920F93CD
:101AD0001F93CF93DF93CDB7DEB7CA1BDB0B0FB6D7
:101AE000F894DEBF0FBECDBF09942A883988488894
:101AF0005F846E847D848C849B84AA84B984C8842A
:101B0000DF80EE80FD800C811B81AA81B981CE0F20
:101B1000D11D0FB6F894DEBF0FBECDBFED01089505
:101B2000A1E21A2EAA1BBB1BFD010DC0AA1FBB1FE1
:101B3000EE1FFF1FA217B307E407F50720F0A21B53
:101B4000B30BE40BF50B661F771F881F991F1A94C0
:101B500069F760957095809590959B01AC01BD01EA
:101B6000CF010895A29FB001B39FC001A39F700D44
:101B7000811D1124911DB29F700D811D1124911D95
:101B80000895991B79E004C0991F961708F0961BD9
:101B9000881F7A95C9F78095089597FB072E16F44C
:101BA000009407D077FD09D00E94E10D07FC05D015
:101BB0003EF4909581959F4F0895709561957F4F64
:101BC0000895AA1BBB1B51E107C0AA1FBB1FA61784
:101BD000B70710F0A61BB70B881F991F5A95A9F7D6
:101BE00080959095BC01CD010895EE0FFF1F0590E3
:101BF000F491E02D09940F931F93CF93DF938230DC
:101C0000910510F482E090E0E0917C04F0917D0475
:101C100030E020E0B0E0A0E0309799F421153105E4
:101C200009F44AC0281B390B24303105D8F58A81C4
:101C30009B816115710589F1FB0193838283FE010C
:101C400011C0408151810281138148175907E0F08A
:101C50004817590799F4109761F012960C93129750
:101C600013961C933296CF01DF91CF911F910F9164
:101C7000089500937C0410937D04F4CF2115310561
:101C800051F04217530738F0A901DB019A01BD0159
:101C9000DF01F801C1CFEF01F9CF90937D0480936C
:101CA0007C04CDCFFE01E20FF31F8193919322506C
:101CB000310939832883D7CF20917A0430917B046E
:101CC000232B41F4209102013091030130937B04D6
:101CD00020937A04209100013091010121153105F2
:101CE00041F42DB73EB74091040150910501241BEA
:101CF000350BE0917A04F0917B04E217F307A0F42E
:101D00002E1B3F0B2817390778F0AC014E5F5F4F51
:101D10002417350748F04E0F5F1F50937B04409304
:101D20007A04819391939FCFF0E0E0E09CCFCF9332
:101D3000DF930097E9F0FC01329713821282A091A1
:101D40007C04B0917D04ED0130E020E01097A1F417
:101D500020813181820F931F20917A0430917B047E
:101D60002817390709F061C0F0937B04E0937A04E7
:101D7000DF91CF910895EA01CE17DF07E8F54A8198
:101D80005B819E0141155105B1F7E901FB83EA83AF
:101D900049915991C40FD51FEC17FD0761F480815B
:101DA00091810296840F951FE9019983888382812E
:101DB00093819B838A83F0E0E0E012968D919C9161
:101DC00013970097B9F52D913C911197CD0102968B
:101DD000820F931F20917A0430917B0428173907D2
:101DE00039F6309751F510927D0410927C04B0932F
:101DF0007B04A0937A04BCCFD383C28340815181FA
:101E0000840F951FC817D90761F44E5F5F4F888113
:101E10009981480F591F518340838A819B81938305
:101E200082832115310509F0B0CFF0937D04E09352
:101E30007C049ECFFD01DC01C0CF13821282D7CF7C
:101E4000B0E0A0E0E6E2FFE00C945B0D8C010097AF
:101E500051F4CB010E94FB0D8C01C801CDB7DEB758
:101E6000E0E10C94770DFC01E60FF71F9C01225076
:101E70003109E217F30708F49DC0D901CD91DC9137
:101E80001197C617D70798F0C530D10530F3CE01AA
:101E900004978617970708F3C61BD70B2297C193A1
:101EA000D1936D937C93CF010E94970ED6CF5B01A7
:101EB000AC1ABD0A4C018C0E9D1EA0917C04B09101
:101EC0007D04512C412CF12CE12C109731F580919F
:101ED0007A0490917B048815990509F05CC0461638
:101EE000570608F058C080910001909101010097B9
:101EF00041F48DB79EB74091040150910501841BB8
:101F0000950BE817F90708F055C0F0937B04E093B0
:101F10007A04F90171836083A0CF8D919C91119710
:101F200012966C90129713967C901397A815B9058A
:101F300059F56C0142E0C40ED11CCA14DB0420F137
:101F4000AC014A195B09DA011296159780F062829A
:101F5000738251834083D9016D937C93E114F10422
:101F600071F0D7011396FC93EE93129776CF2296D9
:101F70008C0F9D1FF90191838083F301EFCFF093C4
:101F80007D04E0937C0469CF4816590608F42C01BF
:101F90007D01D3019ACFCB010E94FB0D7C010097FC
:101FA00049F0AE01B8010E94DD0FC8010E94970EF2
:101FB000870153CF10E000E050CFFB01DC0102C0ED
:101FC00001900D9241505040D8F70895FB01DC017B
:101FD0008D91019080190110D9F3990B0895FB019F
:101FE000DC0101900D920020E1F70895FB01DC0176
:101FF0004150504030F08D910190801919F400202B
:10200000B9F7881B990B089510E0CDE5D0E004C026
:10201000FE010E94F50D2196CE35D107C9F7F8943F
:02202000FFCFF0
:1020220000007E04800000000000A402D201FF0133
:10203200F10262020E0254020D0A0052554E4E493E
:102042004E470053544F505045440054525545009A
:1020520046414C53450043757272656E7420536558
:102062007474696E6773005374617475733A2000F7
:102072005374617274204F6E20426F6F743A200065
:10208200536572766F2050696E3A20440046574479
:102092002053706565643A2000524556205370659E
:1020A20065643A20005370696E2054696D653A2068
:1020B200006D730050617573652054696D653A2037
:1020C200002D2D2D2D2D2D2D2D2D2D2D2D2D2D2D6B
:1020D2002D2D2D2D2D2D2D2D2D005345545F535477
:1020E2004152545F4F4E5F424F4F543A0053455452
:1020F2005F4657443A005345545F5245563A00539F
:1021020045545F5350494E3A005345545F50415530
:1021120053453A005345545F50494E3A004745549F
:102122005F414C4C0053544152540053544F5000A1
:102132004E6F2076616C69642073657474696E6792
:102142007320666F756E642E204C6F6164696E67D2
:102152002064656661756C74732E2E2E004A696761
:10216200676C65722052656164792E2057616974CB
:10217200696E6720666F7220636F6D6D616E647346
:102182002E2E2E004A6967676C65722053544152A5
:102192005445442E004A6967676C65722053544F58
:1021A200505045442E00466F7277617264207370FE
:1021B200656564207570646174656420746F3A208B
:1021C200005265766572736520737065656420756B
:1021D20070646174656420746F3A20005370696E94
:1021E2002074696D65207570646174656420746F14
:1021F2003A200050617573652074696D65207570B1
:10220200646174656420746F3A200053746172745F
:10221200204F6E20426F6F74207570646174656424
:1022220020746F3A2000536572766F2050696E20D9
:102232007570646174656420746F3A20440045725D
:10224200726F723A20496E76616C69642070696EB1
:102252002E20506C65617365207573652070696E00
:10226200732000207468726F7567682000556E6B6A
:0E2272006E6F776E20436F6D6D616E642E008F
:00000001FF
